{
  "transactions": [
    {
      "hash": "0xe4fdacc1096485dab0897b3f711972dac59ad06ed3fdf89afa515d8de17c3399",
      "transactionType": "CREATE",
      "contractName": "TestToken",
      "contractAddress": "0x3ccbd8c7b63363998e63f73e92ff72c5813be4eb",
      "function": null,
      "arguments": null,
      "transaction": {
        "from": "0x3cc761ec333aa1ec16e9c8c7bf4537ab27089ffa",
        "gas": "0x9affa",
        "value": "0x0",
        "input": "0x608060405234801561000f575f80fd5b506040518060400160405280601281526020017115195cdd0810d85c989bdb8810dc99591a5d60721b815250604051806040016040528060048152602001637443435360e01b815250815f90816100669190610113565b5060016100738282610113565b5050506101d2565b634e487b7160e01b5f52604160045260245ffd5b600181811c908216806100a357607f821691505b6020821081036100c157634e487b7160e01b5f52602260045260245ffd5b50919050565b601f82111561010e57805f5260205f20601f840160051c810160208510156100ec5750805b601f840160051c820191505b8181101561010b575f81556001016100f8565b50505b505050565b81516001600160401b0381111561012c5761012c61007b565b6101408161013a845461008f565b846100c7565b602080601f831160018114610173575f841561015c5750858301515b5f19600386901b1c1916600185901b1785556101ca565b5f85815260208120601f198616915b828110156101a157888601518255948401946001909101908401610182565b50858210156101be57878501515f19600388901b60f8161c191681555b505060018460011b0185555b505050505050565b6106eb806101df5f395ff3fe608060405234801561000f575f80fd5b506004361061009b575f3560e01c806340c10f191161006357806340c10f191461011f57806370a082311461013457806395d89b411461015c578063a9059cbb14610164578063dd62ed3e14610177575f80fd5b806306fdde031461009f578063095ea7b3146100bd57806318160ddd146100e057806323b872dd146100f2578063313ce56714610105575b5f80fd5b6100a76101af565b6040516100b4919061052a565b60405180910390f35b6100d06100cb366004610591565b61023a565b60405190151581526020016100b4565b6002545b6040519081526020016100b4565b6100d06101003660046105b9565b6102a6565b61010d601281565b60405160ff90911681526020016100b4565b61013261012d366004610591565b610361565b005b6100e46101423660046105f2565b6001600160a01b03165f9081526003602052604090205490565b6100a761036f565b6100d0610172366004610591565b61037c565b6100e4610185366004610612565b6001600160a01b039182165f90815260046020908152604080832093909416825291909152205490565b5f80546101bb90610643565b80601f01602080910402602001604051908101604052809291908181526020018280546101e790610643565b80156102325780601f1061020957610100808354040283529160200191610232565b820191905f5260205f20905b81548152906001019060200180831161021557829003601f168201915b505050505081565b335f8181526004602090815260408083206001600160a01b038716808552925280832085905551919290917f8c5be1e5ebec7d5bd14f71427d1e84f3dd0314c0f7b2291e5b200ac8c7c3b925906102949086815260200190565b60405180910390a35060015b92915050565b6001600160a01b0383165f9081526004602090815260408083203384529091528120548281101561031e5760405162461bcd60e51b815260206004820152601d60248201527f45524332303a20696e73756666696369656e7420616c6c6f77616e636500000060448201526064015b60405180910390fd5b610328838261068f565b6001600160a01b0386165f908152600460209081526040808320338452909152902055610356858585610391565b506001949350505050565b61036b82826104a4565b5050565b600180546101bb90610643565b5f610388338484610391565b50600192915050565b6001600160a01b0383165f908152600360205260409020548111156103f85760405162461bcd60e51b815260206004820152601b60248201527f45524332303a20696e73756666696369656e742062616c616e636500000000006044820152606401610315565b6001600160a01b0383165f908152600360205260408120805483929061041f90849061068f565b90915550506001600160a01b0382165f908152600360205260408120805483929061044b9084906106a2565b92505081905550816001600160a01b0316836001600160a01b03167fddf252ad1be2c89b69c2b068fc378daa952ba7f163c4a11628f55a4df523b3ef8360405161049791815260200190565b60405180910390a3505050565b8060025f8282546104b591906106a2565b90915550506001600160a01b0382165f90815260036020526040812080548392906104e19084906106a2565b90915550506040518181526001600160a01b038316905f907fddf252ad1be2c89b69c2b068fc378daa952ba7f163c4a11628f55a4df523b3ef9060200160405180910390a35050565b5f602080835283518060208501525f5b818110156105565785810183015185820160400152820161053a565b505f604082860101526040601f19601f8301168501019250505092915050565b80356001600160a01b038116811461058c575f80fd5b919050565b5f80604083850312156105a2575f80fd5b6105ab83610576565b946020939093013593505050565b5f805f606084860312156105cb575f80fd5b6105d484610576565b92506105e260208501610576565b9150604084013590509250925092565b5f60208284031215610602575f80fd5b61060b82610576565b9392505050565b5f8060408385031215610623575f80fd5b61062c83610576565b915061063a60208401610576565b90509250929050565b600181811c9082168061065757607f821691505b60208210810361067557634e487b7160e01b5f52602260045260245ffd5b50919050565b634e487b7160e01b5f52601160045260245ffd5b818103818111156102a0576102a061067b565b808201808211156102a0576102a061067b56fea2646970667358221220329f132291cbeee41dc5faa9dea0222c92df74a093a5b759c54e3342bd5e76f464736f6c63430008180033",
        "nonce": "0x1",
        "chainId": "0x13882"
      },
      "additionalContracts": [],
      "isFixedGasLimit": false
    },
    {
      "hash": "0x6c9e48064441aa06403c567741c612851c63ddc8b5e86f14e9b915a26a554dcd",
      "transactionType": "CALL",
      "contractName": "TestToken",
      "contractAddress": "0x3ccbd8c7b63363998e63f73e92ff72c5813be4eb",
      "function": "mint(address,uint256)",
      "arguments": [
        "0x3CC761eC333AA1EC16e9c8C7BF4537Ab27089fFA",
        "1000000000000000000000"
      ],
      "transaction": {
        "from": "0x3cc761ec333aa1ec16e9c8c7bf4537ab27089ffa",
        "to": "0x3ccbd8c7b63363998e63f73e92ff72c5813be4eb",
        "gas": "0x170a8",
        "value": "0x0",
        "input": "0x40c10f190000000000000000000000003cc761ec333aa1ec16e9c8c7bf4537ab27089ffa00000000000000000000000000000000000000000000003635c9adc5dea00000",
        "nonce": "0x2",
        "chainId": "0x13882"
      },
      "additionalContracts": [],
      "isFixedGasLimit": false
    }
  ],
  "receipts": [
    {
      "status": "0x1",
      "cumulativeGasUsed": "0xba859",
      "logs": [
        {
          "address": "0x0000000000000000000000000000000000001010",
          "topics": [
            "0x4dfe1bbbcf077ddc3e01291eea2d5c70c2b422b415d95645b9adcfd678cb1d63",
            "0x0000000000000000000000000000000000000000000000000000000000001010",
            "0x0000000000000000000000003cc761ec333aa1ec16e9c8c7bf4537ab27089ffa",
            "0x0000000000000000000000007ee41d8a25641000661b1ef5e6ae8a00400466b0"
          ],
          "data": "0x00000000000000000000000000000000000000000000000000340cf61e5f3c000000000000000000000000000000000000000000000000000133cf9cbebb0331000000000000000000000000000000000000000000003b986bdc1cffb2b62fba00000000000000000000000000000000000000000000000000ffc2a6a05bc731000000000000000000000000000000000000000000003b986c1029f5d1156bba",
          "blockHash": "0xb236cd8efe71297cafd497a2c68d415f7997d60c1ac385ebb89ab0f92733ba6e",
          "blockNumber": "0x22fdedc",
          "blockTimestamp": "0x69dfa085",
          "transactionHash": "0xe4fdacc1096485dab0897b3f711972dac59ad06ed3fdf89afa515d8de17c3399",
          "transactionIndex": "0x1",
          "logIndex": "0x6",
          "removed": false
        }
      ],
      "logsBloom": "0x00000000000000000100001000000000000000000000000000000000000000000000000000000000000000000000000000008000000200000000000000000000000000000000000000000000000000800000000000000000000100000000000000000000000000000000000000000000000000000000000080000000000000000000000000000000020000000400000000000000000000000000000000000000200000000000000000000000000000000000000000000000000000000000004000000000000000000001000000000000000000400000000000100000000000000000000000000000000000000000000000000000000000000000000000100000",
      "type": "0x2",
      "transactionHash": "0xe4fdacc1096485dab0897b3f711972dac59ad06ed3fdf89afa515d8de17c3399",
      "transactionIndex": "0x1",
      "blockHash": "0xb236cd8efe71297cafd497a2c68d415f7997d60c1ac385ebb89ab0f92733ba6e",
      "blockNumber": "0x22fdedc",
      "gasUsed": "0x773ad",
      "effectiveGasPrice": "0x6fc23ac3f",
      "from": "0x3cc761ec333aa1ec16e9c8c7bf4537ab27089ffa",
      "to": null,
      "contractAddress": "0x3ccbd8c7b63363998e63f73e92ff72c5813be4eb"
    },
    {
      "status": "0x1",
      "cumulativeGasUsed": "0xcb340",
      "logs": [
        {
          "address": "0x3ccbd8c7b63363998e63f73e92ff72c5813be4eb",
          "topics": [
            "0xddf252ad1be2c89b69c2b068fc378daa952ba7f163c4a11628f55a4df523b3ef",
            "0x0000000000000000000000000000000000000000000000000000000000000000",
            "0x0000000000000000000000003cc761ec333aa1ec16e9c8c7bf4537ab27089ffa"
          ],
          "data": "0x00000000000000000000000000000000000000000000003635c9adc5dea00000",
          "blockHash": "0xb236cd8efe71297cafd497a2c68d415f7997d60c1ac385ebb89ab0f92733ba6e",
          "blockNumber": "0x22fdedc",
          "blockTimestamp": "0x69dfa085",
          "transactionHash": "0x6c9e48064441aa06403c567741c612851c63ddc8b5e86f14e9b915a26a554dcd",
          "transactionIndex": "0x2",
          "logIndex": "0x7",
          "removed": false
        },
        {
          "address": "0x0000000000000000000000000000000000001010",
          "topics": [
            "0x4dfe1bbbcf077ddc3e01291eea2d5c70c2b422b415d95645b9adcfd678cb1d63",
            "0x0000000000000000000000000000000000000000000000000000000000001010",
            "0x0000000000000000000000003cc761ec333aa1ec16e9c8c7bf4537ab27089ffa",
            "0x0000000000000000000000007ee41d8a25641000661b1ef5e6ae8a00400466b0"
          ],
          "data": "0x0000000000000000000000000000000000000000000000000007484a94e8340000000000000000000000000000000000000000000000000000ffc2a69e864f9e000000000000000000000000000000000000000000003b986c1029f5d1156bba00000000000000000000000000000000000000000000000000f87a5c099e1b9e000000000000000000000000000000000000000000003b986c17724065fd9fba",
          "blockHash": "0xb236cd8efe71297cafd497a2c68d415f7997d60c1ac385ebb89ab0f92733ba6e",
          "blockNumber": "0x22fdedc",
          "blockTimestamp": "0x69dfa085",
          "transactionHash": "0x6c9e48064441aa06403c567741c612851c63ddc8b5e86f14e9b915a26a554dcd",
          "transactionIndex": "0x2",
          "logIndex": "0x8",
          "removed": false
        }
      ],
      "logsBloom": "0x00000000000000000100001000000000000000000000000000000000000000000000000000000000000000000000000000008000000200000000000200000000000000000000000000000008000000810000000000000000000100000000000000000000020000000000000000000800000000000000000080000010000000000000000000000000020000000400000000000000000000000000000000000000200000000000000000000000000000000000000000000000000000000000004000000002000000000001000000000000000000400000000000100000000020000000000000000000000000000000000010000000000000000000000000100000",
      "type": "0x2",
      "transactionHash": "0x6c9e48064441aa06403c567741c612851c63ddc8b5e86f14e9b915a26a554dcd",
      "transactionIndex": "0x2",
      "blockHash": "0xb236cd8efe71297cafd497a2c68d415f7997d60c1ac385ebb89ab0f92733ba6e",
      "blockNumber": "0x22fdedc",
      "gasUsed": "0x10ae7",
      "effectiveGasPrice": "0x6fc23ac3f",
      "from": "0x3cc761ec333aa1ec16e9c8c7bf4537ab27089ffa",
      "to": "0x3ccbd8c7b63363998e63f73e92ff72c5813be4eb",
      "contractAddress": null
    }
  ],
  "libraries": [],
  "pending": [],
  "returns": {},
  "timestamp": 1776263301393,
  "chain": 80002,
  "commit": "dc40115"
}